:10000000B3EF0DF00000000000EF00F00000000072
:0A0010000000000000000000F3D71C
:10001C00EFC06AFF016A0150000A05E1000E68B0EA
:0C002C00010E016EF8D76ACF00F0120040
:10003800EFC0C9FF016A0150000A05E1000EC7B010
:0C004800010E016EF8D7C9CF00F01200C5
:0E0054000001EEB102D0899801D08988120017
:0E0062000001EEB102D08D9601D08D86120005
:0E0070000001EEB102D08B9A01D08B8A1200F3
:0E007E000001EEB102D08B9401D08B841200F1
:0E008C000001EEB102D08B9801D08B881200DB
:0E009A000001EEB102D08A9201D08A821200DB
:1000A8000B840BAE5FEF00F0010E036E026A016A6B
:0A00B800006A0A360232FF0E120041
:0E00C2000001EEB102D08D9201D08D821200AD
:0E00D0000001EEB102D08D9401D08D8412009B
:0E00DE000001EEB102D0899401D08984120095
:0E00EC00ACB202D00000FCD7EEC0ADFF120097
:1000FA000F0121B302D00000FBD7EEC01CFF120093
:0E010A000001EEB102D08D9001D08D80120068
:0E0118000001EEB102D08B9801D08B8812004E
:0E0126000001EEB102D08B9E01D08B8E120034
:0E0134000001EEB102D08B9601D08B86120036
:0E0142000001EEB102D0899201D08982120034
:0E0150000001EEB102D08B9801D08B88120016
:0E015E000001EEB102D08B9001D08B80120018
:0E016C000001EEB102D08B9601D08B861200FE
:0E017A00026A016A006A086A036A000E120037
:0E0188000001EEB102D08B9A01D08B8A1200DA
:0E0196000001EEB102D08B9C01D08B8C1200C8
:0E01A4000001EEB102D0899001D089801200D6
:1001B200EEC0C9FF016A0150000A05E1000EC7B096
:0C01C200010E016EF8D7C9CF01F0120049
:0E01CE000001EEB102D08B9601D08B8612009C
:0E01DC000001EEB102D08B9201D08B82120096
:0E01EA000001EEB102D08A9001D08A8012008E
:0E01F8000001EEB102D08B9E01D08B8E120062
:0E0206000001EEB102D08B9601D08B86120063
:10021400F250026EF29E0500FF6A0150FE6E00501D
:08022400FD6E02BEF28E120015
:0E022C000001EEB102D08B9801D08B88120039
:0E023A000001EEB102D08F9401D08F8412002B
:0E0248000001EEB102D08B9601D08B86120021
:080256000AAE029E000E120028
:0E025E000001EEB102D08B9801D08B88120007
:0E026C000001EEB102D08B9A01D08B8A1200F5
:10027A00EEC06AFF016A0150000A05E1000E68B08B
:0C028A00010E016EF8D76ACF01F01200DF
:0E0296000001EEB102D08F9001D08F801200D7
:0E02A4000001EEB102D08A9401D08A841200CB
:0E02B2000001EEB102D08F9201D08F821200B7
:0E02C0000001EEB102D08B9601D08B861200A9
:0E02CE000001EEB102D08B9801D08B88120097
:0E02DC000001EEB102D08B9C01D08B8C120081
:1002EA000C6A0E6A0250D8A48EEF01F001C002F027
:1002FA0000C001F0006A0E860250D8A48EEF01F009
:10030A0001C002F0016A0E960E880250D8B4A0EF1E
:10031A0001F00E50035ED8A4D8A0A5EF01F0D89042
:10032A0002BEAAEF01F0003601360236032E95EF1F
:10033A0001F0A5EF01F0010E0C6E1ADFADEF01F02E
:10034A00020E0C6EACDEADEF01F0040E0C6E7EDF19
:02035A0012008F
:10035C000B820BAEB8EF01F003680268016800680D
:08036C000A360232FF0E1200F6
:10037400FA0E0001B56F000EB66FEE0EB76F000EE9
:10038400B86FFF0EB96FFF0EBA6F000EBB6F000E91
:10039400BC6FFF0EAD6FFF0EAE6F000EAF6F000EA1
:1003A400B06FFF0EB16FFF0EB26F000EB36F000E91
:1003B400B46F0F01218B900E226F98849892A4AA97
:0A03C40003D01DCF00F0FBD712009C
:1003CE00EC0E0001B56F000EB66FEE0EB76F000E9D
:1003DE00B86FFF0EB96FFF0EBA6F000EBB6F000E37
:1003EE00BC6FFF0EAD6FFF0EAE6F000EAF6F000E47
:1003FE00B06FFF0EB16FFF0EB26F000EB36F000E37
:10040E00B46FAC8A900EAB6E948E949C9EAA03D061
:08041E00AECF00F0FBD7120085
:080426000B6A0B86FF0E1200A9
:10042E00E4C0EAF0E5C0EBF0E6C0ECF0E7C0EDF0BA
:10043E00E8C000F0E9C001F0010E0001E85F000E17
:10044E00E95B005001101BE0C3C0E1FFC4C0E2FF36
:10045E00EAC0E9FFEBC0EAFFEECFE6FFC1C000F055
:10046E00C2C001F0D0DEECC0E1FFEDC0E2FF00C083
:10047E00E6FF0001EC4BED2BEA4BEB2BD9D712002C
:10048E00380E0001A36F000EA46FEF0EA56F000EC5
:10049E00A66FB20E9F6F010EA06FEE0EA16F000E33
:1004AE00A26F949AE451040A02E1948601D09496C4
:1004BE009488C66AC79CC79EE451C612E651C612FE
:1004CE00E551C712E65305E0E751000AD8B4C78CD0
:0C04DE0003D0E753D8A4C78CC68A1200D4
:1004EA0038D00F0120870D0E1F6F040E1E6F218555
:1004FA003CDF7ED00F012087060E1F6F820E1E6F13
:10050A00218533DF75D00F012087030E1F6F400E40
:10051A001E6F21852ADF6CD00F012087010E1F6F05
:10052A00A00E1E6F218521DF63D00F012087010EE7
:10053A001F6F150E1E6F218518DF5AD00F012087F5
:10054A001F6B8A0E1E6F218510DF52D0060E006EB9
:10055A0059D0000E006E0001DE1908E10050DD19C5
:10056A0005E1120EDC1902E1DB51C00ABAE0000E05
:10057A00006EDE1908E10050DD1905E1250EDC19CF
:10058A0002E1DB51800AB6E0000E006EDE1908E1D6
:10059A000050DD1905E14B0EDC1902E1DB51000ABE
:1005AA00B2E0000E006EDE1908E10050DD1905E127
:1005BA00960EDC1902E1DB51000AAEE0000E006E75
:1005CA00DE1908E10050DD1905E1E10EDC1902E14E
:1005DA00DB51000AAAE0DE51000A08E1DD51010AF6
:1005EA0005E1DC51C20A02E1DB51000AA7E0AED7FD
:1005FA000001FA0EC56F000EC66FEE0EC76F000E31
:06060A00C86F006A120037
:1006100021D0CF0EAF6EAC94DADE6BD0670EAF6E2A
:10062000AC94D5DE66D0CF0EAF6EAC84D0DE61D098
:10063000670EAF6EAC84CBDE5CD0440EAF6EAC8484
:10064000C6DE57D0220EAF6EAC84C1DE52D0060E8D
:10065000006E58D00001000E006EDE1908E1005057
:10066000DD1905E1120EDC1902E1DB51C00AD1E00F
:10067000000E006EDE1908E10050DD1905E1250EBF
:10068000DC1902E1DB51800AC9E0000E006EDE19C0
:1006900008E10050DD1905E14B0EDC1902E1DB51E8
:1006A000000AC1E0000E006EDE1908E10050DD19FD
:1006B00005E1960EDC1902E1DB51000AB9E0000EFB
:1006C000006EDE1908E10050DD1905E1E10EDC19CC
:1006D00002E1DB51000AB1E0DE51000A08E1DD5120
:1006E000010A05E1DC51C20A02E1DB51000AAAE07D
:1006F000AED7EC0EC56F000EC66FEE0EC76F000EC4
:06070000C86F006A120040
:10070600C7C0E1FFC8C0E2FFDBC0E9FFDCC0EAFF0B
:10071600EECFE6FFC5C000F0C6C001F078DD006A86
:020726001200BF
:1007280021D0CF0EAF6EAC944EDE6BD0670EAF6E9D
:10073800AC9449DE66D0CF0EAF6EAC8444DE61D097
:10074800670EAF6EAC843FDE5CD0440EAF6EAC84F7
:100758003ADE57D0220EAF6EAC8435DE52D0060E8C
:10076800006E58D00001000E006EDE1908E100503E
:10077800DD1905E1120EDC1902E1DB51C00AD1E0F6
:10078800000E006EDE1908E10050DD1905E1250EA6
:10079800DC1902E1DB51800AC9E0000E006EDE19A7
:1007A80008E10050DD1905E14B0EDC1902E1DB51CF
:1007B800000AC1E0000E006EDE1908E10050DD19E4
:1007C80005E1960EDC1902E1DB51000AB9E0000EE2
:1007D800006EDE1908E10050DD1905E1E10EDC19B3
:1007E80002E1DB51000AB1E0DE51000A08E1DD5107
:1007F800010A05E1DC51C20A02E1DB51000AAAE064
:10080800AED7EC0EC56F000EC66FEE0EC76F000EAA
:06081800C86F006A120027
:10081E0059D00001DCB102D0929001D092800F012C
:10082E00259176D00001DCB102D0949001D0948055
:10083E006FD00001DCB102D0969001D0968068D0C6
:10084E000001DCB102D0949601D0948661D00001F3
:10085E00DCB102D0949801D094885AD00001DCB15A
:10086E0002D0949A01D0948A53D00001DCB102D008
:10087E00949201D094824CD00001DCB102D09390BE
:10088E0001D0938045D00001DCB102D0949E01D0FE
:10089E00948E3ED00001DCB102D0949C01D0948C99
:1008AE0037D00001DCB102D0949601D0948630D0BE
:1008BE000001DCB102D0949801D0948829D0010EA9
:1008CE00006E28D00001DB51000AA3E0DB51010AC3
:1008DE00A9E0DB51020AADE0DB51030AB1E0DB51C6
:1008EE00040AB5E0DB51050AB9E0DB51060ABDE0AA
:1008FE00DB51070AC1E0DB51080AC5E0DB51090AEA
:10090E00C9E0DB510A0ACDE0DB510B0AD1E0D7D7A3
:06091E00000E006E120045
:1009240059D00001DCB102D0929201D092820F0121
:10093400259376D00001DCB102D0929801D0928840
:100944006FD00001DCB102D0969201D0968268D0BB
:100954000001DCB102D0949601D0948661D00001EC
:10096400DCB102D0949801D094885AD00001DCB153
:1009740002D0949A01D0948A53D00001DCB102D001
:10098400949401D094844CD00001DCB102D09392B1
:1009940001D0938245D00001DCB102D0949E01D0F5
:1009A400948E3ED00001DCB102D0949C01D0948C92
:1009B40037D00001DCB102D0949601D0948630D0B7
:1009C4000001DCB102D0949801D0948829D0010EA2
:1009D400006E28D00001DB51000AA3E0DB51010ABC
:1009E400A9E0DB51020AADE0DB51030AB1E0DB51BF
:1009F400040AB5E0DB51050AB9E0DB51060ABDE0A3
:100A0400DB51070AC1E0DB51080AC5E0DB51090AE2
:100A1400C9E0DB510A0ACDE0DB510B0AD1E0D7D79C
:060A2400000E006E12003E
:100A2A00DBC0F6FFDCC0F7FFDDC0F8FF0900F5CF39
:100A3A00E4F0040E0001DB25F66E000EDC21F76EF1
:100A4A00000EDD21F86E0900F5CFE5F0080EDB2572
:100A5A00F66E000EDC21F76E000EDD21F86E09003D
:100A6A00F5CFE6F00C0EDB25F66E000EDC21F76EF4
:100A7A00000EDD21F86E0900F5CFE7F003DD000E68
:040A8A00006E1200E8
:100A8E0021D0CF0EAF6EAC949BDC6BD0670EAF6EE9
:100A9E00AC9496DC66D0CF0EAF6EAC8491DC61D098
:100AAE00670EAF6EAC848CDC5CD0440EAF6EAC8443
:100ABE0087DC57D0220EAF6EAC8482DC52D0060E8D
:100ACE00006E58D00001000E006EDE1908E10050D5
:100ADE00DD1905E1120EDC1902E1DB51C00AD1E08D
:100AEE00000E006EDE1908E10050DD1905E1250E3D
:100AFE00DC1902E1DB51800AC9E0000E006EDE193E
:100B0E0008E10050DD1905E14B0EDC1902E1DB5165
:100B1E00000AC1E0000E006EDE1908E10050DD197A
:100B2E0005E1960EDC1902E1DB51000AB9E0000E78
:100B3E00006EDE1908E10050DD1905E1E10EDC1949
:100B4E0002E1DB51000AB1E0DE51000A08E1DD519D
:100B5E00010A05E1DC51C20A02E1DB51000AAAE0FA
:100B6E00AED7EC0EC56F000EC66FEE0EC76F000E41
:060B7E00C86F006A1200BE
:100B8400DBC0F6FFDCC0F7FFDDC0F8FF0900F5CFDE
:100B9400E4F0040E0001DB25F66E000EDC21F76E96
:100BA400000EDD21F86E0900F5CFE5F0080EDB2517
:100BB400F66E000EDC21F76E000EDD21F86E0900E2
:100BC400F5CFE6F00C0EDB25F66E000EDC21F76E99
:100BD400000EDD21F86E0900F5CFE7F056DC000EBB
:040BE400006E12008D
:100BE8005DD00001DCB102D0929401D092840F0153
:100BF80025957AD00001DCB102D0969601D0968670
:100C080073D00001DCB102D0969401D096846CD0E8
:100C18000001DCB102D0949601D0948665D0000121
:100C2800DCB102D0949801D094885ED00001DCB188
:100C380002D0949A01D0948A57D00001DCB102D036
:100C4800989001D0988050D00001DCB102D09394E4
:100C580001D0938449D00001DCB102D0989401D02E
:100C680098840F01239540D00001DCB102D09892FE
:100C780001D098820F01239337D00001DCB102D054
:100C8800949601D0948630D00001DCB102D09498BB
:100C980001D0948829D0010E006E28D00001DB51C4
:100CA800000A9FE0DB51010AA5E0DB51020AA9E036
:100CB800DB51030AADE0DB51040AB1E0DB51050A60
:100CC800B5E0DB51060AB9E0DB51070ABDE0DB51AC
:100CD800080AC1E0DB51090AC7E0DB510A0ACDE086
:0E0CE800DB510B0AD1E0D7D7000E006E1200D0
:100CF600DBC0F6FFDCC0F7FFDDC0F8FF0900F5CF6B
:100D0600E4F0040E0001DB25F66E000EDC21F76E22
:100D1600000EDD21F86E0900F5CFE5F0080EDB25A3
:100D2600F66E000EDC21F76E000EDD21F86E09006E
:100D3600F5CFE6F00C0EDB25F66E000EDC21F76E25
:100D4600000EDD21F86E0900F5CFE7F047EC02F062
:060D5600000E006E120009
:100D5C000450000A12E10550000A0FE10650000A87
:100D6C000CE10750000A09E1FF0E006EFF0E016E48
:100D7C007F0E026EFF0E036EA8D0086A096A075038
:100D8C00D8B459EF07F00350D8B45EEF07F0025017
:100D9C0006180A6E028E068E0E6A02C008F001C09A
:100DAC000CF000C00DF004500D5E0550D8A0053CB1
:100DBC000C5E0650D8A0063C085E086A0C6A0D6AE8
:100DCC00D8A0F0EF06F0D89002320132003208328F
:100DDC00010E0E6E0750035ED8A0FDEF06F07E0EDE
:100DEC000E240326D8B063EF07F003EF07F07E0E56
:100DFC000E240326D8A068EF07F0180E0B6E0D36E4
:100E0C000C3608360036013602360E360450005EBB
:100E1C000550D8A0053C015E0650D8A0063C025EE9
:100E2C0006340E120EA01EEF07F00D8029EF07F00E
:100E3C00045000260550D8B0053C01260650D8B009
:100E4C00062802260D900B2E05EF07F04FEF07F04A
:100E5C00D8900036013602360E360450005E05502E
:100E6C00D8A0053C015E0650D8A0063C025E0634B4
:100E7C000E10010B0D26D8B00C2AD8B4082AD8A411
:100E8C004FEF07F008320C320D32032AD8B463EF5F
:100E9C0007F00AAE089E0850026E0C50016E0D5001
:100EAC00006E6BEF07F0010E13EC02F06BEF07F026
:100EBC00020EBDEC00F06BEF07F0040EAEEC01F08F
:0C0ECC006BEF07F0080E54EC00F0120071
:100ED800DBC0F6FFDCC0F7FFDDC0F8FF0900F5CF87
:100EE800BDF00900F5CFBEF00900F5CFBFF009004D
:100EF800F5CFC0F0040E0001DB25F66E000EDC21F4
:100F0800F76E000EDD21F86E0900F5CFC1F009007B
:100F1800F5CFC2F00900F5CFC3F00900F5CFC4F052
:020F28001200B5
:100F2A0000C008F00150006E016A026A036A0B6A87
:100F3A000C6A016A026A036A960E036E0A6A00AEB6
:100F4A00ADEF07F0081E001E082AD8B4002A0A8E40
:100F5A0000C001F008C000F0086A026A75EC01F0EE
:020F6A00120073
:100F6C00080E0001DB25F66E000EDC21F76E000E7C
:100F7C00DD21F86E0900F5CFC9F00900F5CFCAF0F4
:0E0F8C000900F5CFCBF00900F5CFCCF0120034
:100F9A00010E0001DC6FE00EDB15DD6FDE6BCBC0EE
:100FAA00E1FFCCC0E2FFE66AC9C000F0CAC001F0A6
:100FBA000AEC01F0DC0E0001E46F000EE56FDF0EB3
:100FCA00E66F000EE76F030EE86F000EE96F17EC8D
:100FDA0002F0CBC0E1FFCCC0E2FF010EE66EC9C051
:100FEA0000F0CAC001F00AEC01F00F0E0001E01592
:100FFA00E26FE36B000EE317000EE36FE2C001F04D
:10100A00006A00C0E2F001C0E3F0E1510012000EF4
:0C101A00011200C0E2F001C0E3F012007F
:10102600DBC004F0DCC005F004C002F005C003F02C
:10103600044A052ADDC000F0DEC001F00001DD4BE8
:10104600DE2B00C0E9FF01C0EAFF02C0E1FF03C0DA
:10105600E2FFEECFE6FF02C0E9FF03C0EAFFEE5271
:0E10660001E0E2D7DBC000F0DCC001F01200B8
:101074000D6A086A0050D8B4000C04180A6E0ABE3F
:101084000D1E0B6A04AE02D0041E042A00AE02D068
:10109400001E002A005004100A6E0ABE1FD004501D
:1010A400085E003600340836045008260036060E62
:1010B4000C6E00340836045000B0085E00A0082608
:1010C40000360C2EF6D700A008260BB015D00DAEB6
:1010D400000C001E002A081E082A000C04AE09D0C9
:1010E40000BE04D00050086E006AF1D7006A002ADE
:1010F400000C001E0B2AD3D7082A0450085CD8A47D
:0E110400E6D7086A002A00AEE2D7FF0C120000
:10111200086A096A000E076203640EEF09F00250C2
:1011220006180A6E075003267E0ED8A09FEF08F01D
:10113200035ED8B013EF09F0A3EF08F0035ED8A066
:1011420018EF09F0028E068E02C00EF001C00BF0FD
:1011520000C00DF000500402F4CF0CF00150050263
:10116200F4CF00F0F3CF08F00402F3500C26F45051
:101172000822000E00220D500502F3500C26F450F6
:101182000822000E002202500402F3500826F450F6
:10119200002202500502016A000E0122F3500026CD
:1011A200F45001220D500602F3500826F45000229A
:1011B200026A000E012202220B500602F3500026A0
:1011C200F4500122000E02220E500602F3500126B4
:1011D200F450022202BEF6EF08F00836003601365D
:1011E20002360306D8B418EF09F009EF09F0D880E7
:1011F200800E08640030000E002201220222D8A0D4
:1012020009EF09F0023201320032034A13EF09F00A
:101212000AAE029E000E1BEF09F0010EBDEC00F0BB
:101222001BEF09F0020EAEEC01F01BEF09F0040E09
:0612320054EC00F0120074
:101238000A6A0350D8A40A800750D8A40A820A5020
:10124800D8B47FEF09F0030AD8B438EF09F00AB030
:1012580033EF09F006AE7DEF09F07BEF09F002AE3F
:101268007BEF09F07DEF09F00250800B0A6E029EB9
:101278000650800B069E0A18D8B449EF09F00A50A8
:10128800D8B47BEF09F07DEF09F00750035CD8B4C0
:1012980053EF09F0D8A06FEF09F075EF09F0065089
:1012A800025CD8B45DEF09F0D8A06FEF09F075EFD4
:1012B80009F00550015CD8B467EF09F0D8A06FEFCA
:1012C80009F075EF09F00450005CD8B47FEF09F01D
:1012D800D8B075EF09F00A52D8B47DEF09F07BEF6A
:1012E80009F00A52D8B47BEF09F07DEF09F0D880F5
:0E12F8001200D8901200D880D8841200120084
:1013060017D0CEC0DBF0CFC0DCF00FEC04F01BD062
:10131600CEC0DBF0CFC0DCF092EC04F014D0CEC02F
:10132600DBF0CFC0DCF05DDC0ED0010E006E0BD022
:101336000001CD51000AE5E0CD51010AE9E0CD51A9
:08134600020AEDE0F2D71200EB
:10134E00D0C0DBF0D1C0DCF0D2C0DDF0BEDDCDC050
:10135E00DBF0CEC0DCF0CFC0DDF001DECBC0E1FFB4
:10136E00CCC0E2FF010EE66EC9C000F0CAC001F0AB
:06137E000AEC01F0120070
:101384001DD0CEC0DBF0CFC0DCF0D0C0DDF0B1DCCE
:1013940020D0CEC0DBF0CFC0DCF0D0C0DDF0C2EC9A
:1013A40005F017D0CEC0DBF0CFC0DCF0D0C0DDF04C
:1013B40015EC05F00ED0010E006E0BD00001CD51DE
:1013C400000ADFE0CD51010AE4E0CD51020AEAE06F
:0413D400F2D712003A
:1013D8000001D96BDA6BCDC0D5F0CEC0D6F0CFC046
:1013E800D7F0D0C0D8F0D851FF0A08E1D751FF0A8A
:1013F80005E1D651FF0A02E1D551FF0A0CE1D1C03F
:10140800DBF0D2C0DCF0650EDD6F000EDE6F07DEAC
:10141800030E006EE9D1010ED36FD7AF0ED0800E48
:10142800D719006E00C0D7F0D32BD1C0E1FFD2C0CE
:10143800E2FF2D0EE66ED14BD22B000E006ED819AE
:1014480008E10050D71905E10050D61902E1D5513D
:10145800000A0BE1D1C0DBF0D2C0DCF0150EDD6F65
:10146800000EDE6FDCDD006ABFD1D851FF0A08E14B
:10147800D751000A05E1D651000A02E1D551000A08
:101488000CE1D1C0DBF0D2C0DCF0170EDD6F000E2E
:10149800DE6FC5DDD3C000F0A7D1000E046E000ECC
:1014A800056E000E066E7F0E076ED5C000F0D6C022
:1014B80001F0D7C002F0D8C003F0BADE010ED8B0F0
:1014C800000E006E00521BE0D5C000F0D6C001F03F
:1014D800D7C002F0D8C003F0000E046E000E056EEF
:1014E800200E066E820E076E10DE00C0D5F001C019
:1014F800D6F002C0D7F003C0D8F0DA07CED7000E76
:10150800046E000E056E200E066E820E076ED5C0A4
:1015180000F0D6C001F0D7C002F0D8C003F088DED2
:10152800000ED8B0010E006E00521BE0D5C000F0CE
:10153800D6C001F0D7C002F0D8C003F0CD0E046EBB
:10154800CC0E056E4C0E066E7B0E076EDEDD00C0FF
:10155800D5F001C0D6F002C0D7F003C0D8F0DA2B1E
:10156800CED7FF0ED515086EFF0ED615096E7F0E65
:10157800D7150A6E000ED8150B6E08C004F009C006
:1015880005F00AC006F00BC007F0043604900536D3
:1015980006360736000ED515006E000ED615016EFC
:1015A800000ED715026EFF0ED815036E00C0D5F0D9
:1015B80001C0D6F002C0D7F003C0D8F00450D5114E
:1015C800006E0550D611016E0650D711026E0750F5
:1015D800D811036E00C0D5F001C0D6F002C0D7F014
:1015E80003C0D8F07F0ED85D006E00C0D4F0010EA5
:1015F800D86F00C004F0D5C000F0D6C001F0D7C045
:1016080002F0D8C003F0045007E00036009001361D
:1016180002360336FF0FF8D700C0D5F001C0D6F068
:1016280002C0D7F003C0D8F0D1C0E1FFD2C0E2FFBA
:10163800D851300FE66ED14BD22B800EDA19006EDE
:10164800800E010A005C08E3800E060A006E800E18
:10165800DA19005C01E30AD0D1C0E1FFD2C0E2FF91
:101668002E0EE66ED14BD22B010ED96F060ED46F1B
:10167800D451000A54E0D86BD5C000F0D6C001F0B0
:10168800D7C002F0D8C003F0003600900136023609
:10169800033600360090013602360336D55100264F
:1016A800D6510122D7510222D851032200C0D5F0C9
:1016B80001C0D6F002C0D7F003C0D8F0D5C000F002
:1016C800D6C001F0D7C002F0D8C003F000360090B1
:1016D80001360236033600C0D5F001C0D6F002C08C
:1016E800D7F003C0D8F0D1C0E1FFD2C0E2FFD85193
:1016F800300FE66ED14BD22BD951000A0EE1DA0732
:10170800DA51000A0AE1D1C0E1FFD2C0E2FF2E0E91
:10171800E66ED14BD22B010ED96FD407A9D7FF0E95
:10172800D125E96EFF0ED221EA6EEE50300A05E1AE
:10173800010ED15F000ED25BF2D7FF0ED125E96E04
:10174800FF0ED221EA6EEE502E0A04E1010ED15F9F
:10175800000ED25BDA51000A41E0D1C0E1FFD2C0ED
:10176800E2FF650EE66ED14BD22B800EDA19006EC1
:10177800800E000A005C0BE2D1C0E1FFD2C0E2FF9C
:101788002D0EE66ED14BD22BDA510008DA6FDAC093
:10179800D4F0800E090A006E800EDA19005C0EE2A1
:1017A8000A0E046ED4C000F061DCD1C0E1FFD2C0E3
:1017B800E2FF0050300FE66ED14BD22B0A0E046EBA
:1017C800D4C000F053DC08C000F0D1C0E1FFD2C0A3
:1017D800E2FF0050300FE66ED14BD22BD1C0E1FFB3
:0A17E800D2C0E2FFE66A006A1200B8
:1017F200CDC0D0F0CEC0D1F00D0E0001D26F0A0ED6
:10180200D36F3AD0D0C0DBF0D1C0DCF083EC03F070
:101812003ED0D0C0E9FFD1C0EAFFEE520AE0D0C00C
:10182200DBF0D1C0DCF083EC03F00001D04BD12B14
:10183200F0D72DD0D0C0E9FFD1C0EAFFEE520AE0C6
:10184200D0C0DBF0D1C0DCF083EC03F00001D04B60
:10185200D12BF0D70001D20EDB6F000EDC6F83ECD0
:1018620003F0D30E0001DB6F000EDC6F83EC03F09C
:101872000ED0060E006E0CD00001CF51000AC2E05D
:10188200CF51010AC6E0CF51020AD4E0F2D7006A72
:02189200120042
:101894000001CD6BCE6B026A320E025C56E26D0E15
:1018A400E96E000EEA6E0250E926D8B0EA2AEE503C
:1018B4002E0A02E1010ECE6FCE51010AD8B4CD2B0F
:1018C400CD51030840E26D0EE96E000EEA6E02503F
:1018D400E926D8B0EA2AEE50650A04E0CE51020A9D
:1018E40001E028D0040ECD5D006E016A000E015A9D
:1018F4000050025C006E0150000E01566D0E002473
:10190400E16E000E0120E26E6D0EE96E000EEA6ECD
:101914000250E926D8B0EA2AEECFE6FF6D0EE16E5A
:10192400000EE26E0250E126D8B0E22AE66A020E08
:10193400CE6F09D06D0EE16E000EE26E0250E1260C
:0C194400D8B0E22AE66A022AA7D71200F7
:10195000CDC0DBF0CDEC07F000C0CEF001C0CFF081
:1019600001A604D0000ECE13F00ECF13CEC000F0AF
:10197000CFC001F095EC07F0610E046E0B0E056E02
:0E198000360E066E830E076EAEEC06F01200F9
:10198E002FD0CEC0DBF0CFC0DCF0D0C0DDF0D1C0A8
:10199E00DEF047EC05F032D0CEC0DBF0CFC0DCF08D
:1019AE00D0C0DDF0D1C0DEF008EC03F027D0CEC001
:1019BE00DBF0CFC0DCF0D0C0DDF0D1C0DEF075ECD6
:1019CE0002F01CD0CEC0DBF0CFC0DCF0D0C0DDF01A
:1019DE00D1C0DEF094EC03F011D0010E006E0ED0EB
:1019EE000001CD51000ACDE0CD51010AD5E0CD5117
:0E19FE00020ADDE0CD51100AE5E0EFD712003D
:101A0C000900F5CFE6FF0006FBE10106F9E1120043
:101A1C000001CD6B020ECE6FCF6B6FDC0001CD6B76
:101A2C00280ECE6F1C0ECF6F000ED06FA5DC100EE3
:101A3C00CD6F800ECE6F250ECF6F000ED06FD16F95
:101A4C00A0DF4D0E0001CD6F000ECE6F020ECF6FDA
:101A5C00CADE090E0B6E1E0E0C6EE40E0D6E0D2EF4
:0E1A6C00FED70C2EFCD70B2EFAD7000012006E
:101A7A00800E006E200E00100001CD6F64DF00C0E2
:101A8A0069F001C06AF002C06BF003C06CF000C0DC
:101A9A00CDF001C0CEF002C0CFF003C0D0F06D0E81
:101AAA000001D16F000ED26F92DCEFDE1B0ECD6FFC
:101ABA00000ECE6F010ECF6F97DE6D0E0001CD6F57
:101ACA00000ECE6F010ECF6F8FDEA70E0001CD6F15
:101ADA00000ECE6F020ECF6F87DE190E0B6E5A0EF6
:101AEA000C6EB10E0D6E0D2EFED70C2EFCD70B2EE2
:081AFA00FAD700000000120001
:101B0200740E0001CD6F1B0ECE6F000ECF6F380E1C
:101B1200D06F1C0ED16F000ED26F18DC290E0B6E27
:101B2200960E0C6E7F0E0D6E0D2EFED70C2EFCD770
:101B32000B2EFAD7B00E0001A76FA86BA96BAA6B88
:101B4200AB6BAC6B270ECD6F000ECE6F020ECF6F5C
:101B52004FDE4C0E0001CD6F000ECE6F020ECF6F26
:041B620047DE120048
:0E1B660020EC0EF058DFCADF85DFFED7FFD778
:101C400010EE15F0540E006E010E016ED40EF66EFD
:0E1C50001B0EF76E000EF86E06EC0DF0120083
:101B7400A401EE005E01EE000A01EE006C01EE002D
:101B84005001EE008801EE00DC01EE00EA01EE00F7
:101B9400F801EE009601EE00CE01EE00CE02EE005A
:101BA400FFFFFFFFFFFFFFFFFFFFFFFFFFFFFFFF41
:101BB400FFFFFFFFFFFFFFFFFFFFFFFFFFFFFFFF31
:101BC400FFFFFFFFFFFFFFFFFFFFFFFFFFFFFFFF21
:021BD4003000DF
:041BD600494E46002E
:0C1BDA00416E676C65206973203A2000A2
:101BE6002A2A204D61676E6574696320726F74617D
:101BF600727920697320696E697469616C697A65A6
:051C060064202A2A0001
:011C0B0000D8
:101C0C002A2A2A20496E697469616C697A696E673F
:081C1C002E2E2E202A2A2A0098
:041C24004E614E00BF
:101C280002000000000000000000000001000000A9
:081C3800B201EE003800EF00DC
:020000040030CA
:0E00000015137F7CF98B91FFFFC0FFE0FF40DE
:00000001FF
